{
	"contracts/insurance.sol": {
		"Insurance": {
			"abi": [
				{
					"inputs": [
						{
							"internalType": "string",
							"name": "id",
							"type": "string"
						}
					],
					"name": "getCustomer",
					"outputs": [
						{
							"internalType": "string",
							"name": "name",
							"type": "string"
						},
						{
							"internalType": "uint256",
							"name": "age",
							"type": "uint256"
						}
					],
					"stateMutability": "view",
					"type": "function"
				},
				{
					"inputs": [
						{
							"internalType": "string",
							"name": "id",
							"type": "string"
						},
						{
							"internalType": "string",
							"name": "name",
							"type": "string"
						},
						{
							"internalType": "uint256",
							"name": "age",
							"type": "uint256"
						}
					],
					"name": "saveCustomerDetails",
					"outputs": [],
					"stateMutability": "nonpayable",
					"type": "function"
				},
				{
					"inputs": [
						{
							"internalType": "string",
							"name": "userInput",
							"type": "string"
						}
					],
					"name": "setInsurance",
					"outputs": [],
					"stateMutability": "nonpayable",
					"type": "function"
				},
				{
					"inputs": [],
					"name": "total",
					"outputs": [
						{
							"internalType": "uint256",
							"name": "",
							"type": "uint256"
						}
					],
					"stateMutability": "view",
					"type": "function"
				}
			],
			"devdoc": {
				"kind": "dev",
				"methods": {},
				"version": 1
			},
			"evm": {
				"assembly": "    /* \"contracts/insurance.sol\":25:1651  contract Insurance {\r... */\n  mstore(0x40, 0x80)\n    /* \"contracts/insurance.sol\":830:833  100 */\n  0x64\n    /* \"contracts/insurance.sol\":799:833  uint private insurance_price = 100 */\n  0x02\n  sstore\n    /* \"contracts/insurance.sol\":845:898  string private type_of_insurance = \"Health insurance\" */\n  mload(0x40)\n  dup1\n  0x40\n  add\n  0x40\n  mstore\n  dup1\n  0x10\n  dup2\n  mstore\n  0x20\n  add\n  0x4865616c746820696e737572616e636500000000000000000000000000000000\n  dup2\n  mstore\n  pop\n  0x03\n  swap1\n  dup1\n  mload\n  swap1\n  0x20\n  add\n  swap1\n  tag_1\n  swap3\n  swap2\n  swap1\n  tag_2\n  jump\t// in\ntag_1:\n  pop\n    /* \"contracts/insurance.sol\":910:949  string private warning = \"Wrong option\" */\n  mload(0x40)\n  dup1\n  0x40\n  add\n  0x40\n  mstore\n  dup1\n  0x0c\n  dup2\n  mstore\n  0x20\n  add\n  0x57726f6e67206f7074696f6e0000000000000000000000000000000000000000\n  dup2\n  mstore\n  pop\n  0x04\n  swap1\n  dup1\n  mload\n  swap1\n  0x20\n  add\n  swap1\n  tag_3\n  swap3\n  swap2\n  swap1\n  tag_2\n  jump\t// in\ntag_3:\n  pop\n    /* \"contracts/insurance.sol\":25:1651  contract Insurance {\r... */\n  callvalue\n  dup1\n  iszero\n  tag_4\n  jumpi\n  0x00\n  dup1\n  revert\ntag_4:\n  pop\n  jump(tag_5)\ntag_2:\n  dup3\n  dup1\n  sload\n  tag_6\n  swap1\n  tag_7\n  jump\t// in\ntag_6:\n  swap1\n  0x00\n  mstore\n  keccak256(0x00, 0x20)\n  swap1\n  0x1f\n  add\n  0x20\n  swap1\n  div\n  dup2\n  add\n  swap3\n  dup3\n  tag_9\n  jumpi\n  0x00\n  dup6\n  sstore\n  jump(tag_8)\ntag_9:\n  dup3\n  0x1f\n  lt\n  tag_10\n  jumpi\n  dup1\n  mload\n  not(0xff)\n  and\n  dup4\n  dup1\n  add\n  or\n  dup6\n  sstore\n  jump(tag_8)\ntag_10:\n  dup3\n  dup1\n  add\n  0x01\n  add\n  dup6\n  sstore\n  dup3\n  iszero\n  tag_8\n  jumpi\n  swap2\n  dup3\n  add\ntag_11:\n  dup3\n  dup2\n  gt\n  iszero\n  tag_12\n  jumpi\n  dup3\n  mload\n  dup3\n  sstore\n  swap2\n  0x20\n  add\n  swap2\n  swap1\n  0x01\n  add\n  swap1\n  jump(tag_11)\ntag_12:\ntag_8:\n  pop\n  swap1\n  pop\n  tag_13\n  swap2\n  swap1\n  tag_14\n  jump\t// in\ntag_13:\n  pop\n  swap1\n  jump\t// out\ntag_14:\ntag_15:\n  dup1\n  dup3\n  gt\n  iszero\n  tag_16\n  jumpi\n  0x00\n  dup2\n  0x00\n  swap1\n  sstore\n  pop\n  0x01\n  add\n  jump(tag_15)\ntag_16:\n  pop\n  swap1\n  jump\t// out\n    /* \"#utility.yul\":7:327   */\ntag_7:\n    /* \"#utility.yul\":51:57   */\n  0x00\n    /* \"#utility.yul\":88:89   */\n  0x02\n    /* \"#utility.yul\":82:86   */\n  dup3\n    /* \"#utility.yul\":78:90   */\n  div\n    /* \"#utility.yul\":68:90   */\n  swap1\n  pop\n    /* \"#utility.yul\":135:136   */\n  0x01\n    /* \"#utility.yul\":129:133   */\n  dup3\n    /* \"#utility.yul\":125:137   */\n  and\n    /* \"#utility.yul\":156:174   */\n  dup1\n    /* \"#utility.yul\":146:227   */\n  tag_19\n  jumpi\n    /* \"#utility.yul\":212:216   */\n  0x7f\n    /* \"#utility.yul\":204:210   */\n  dup3\n    /* \"#utility.yul\":200:217   */\n  and\n    /* \"#utility.yul\":190:217   */\n  swap2\n  pop\n    /* \"#utility.yul\":146:227   */\ntag_19:\n    /* \"#utility.yul\":274:276   */\n  0x20\n    /* \"#utility.yul\":266:272   */\n  dup3\n    /* \"#utility.yul\":263:277   */\n  lt\n    /* \"#utility.yul\":243:261   */\n  dup2\n    /* \"#utility.yul\":240:278   */\n  eq\n    /* \"#utility.yul\":237:321   */\n  iszero\n  tag_20\n  jumpi\n    /* \"#utility.yul\":293:311   */\n  tag_21\n  tag_22\n  jump\t// in\ntag_21:\n    /* \"#utility.yul\":237:321   */\ntag_20:\n    /* \"#utility.yul\":58:327   */\n  pop\n    /* \"#utility.yul\":7:327   */\n  swap2\n  swap1\n  pop\n  jump\t// out\n    /* \"#utility.yul\":333:513   */\ntag_22:\n    /* \"#utility.yul\":381:458   */\n  0x4e487b7100000000000000000000000000000000000000000000000000000000\n    /* \"#utility.yul\":378:379   */\n  0x00\n    /* \"#utility.yul\":371:459   */\n  mstore\n    /* \"#utility.yul\":478:482   */\n  0x22\n    /* \"#utility.yul\":475:476   */\n  0x04\n    /* \"#utility.yul\":468:483   */\n  mstore\n    /* \"#utility.yul\":502:506   */\n  0x24\n    /* \"#utility.yul\":499:500   */\n  0x00\n    /* \"#utility.yul\":492:507   */\n  revert\n    /* \"contracts/insurance.sol\":25:1651  contract Insurance {\r... */\ntag_5:\n  dataSize(sub_0)\n  dup1\n  dataOffset(sub_0)\n  0x00\n  codecopy\n  0x00\n  return\nstop\n\nsub_0: assembly {\n        /* \"contracts/insurance.sol\":25:1651  contract Insurance {\r... */\n      mstore(0x40, 0x80)\n      callvalue\n      dup1\n      iszero\n      tag_1\n      jumpi\n      0x00\n      dup1\n      revert\n    tag_1:\n      pop\n      jumpi(tag_2, lt(calldatasize, 0x04))\n      shr(0xe0, calldataload(0x00))\n      dup1\n      0x2ddbd13a\n      eq\n      tag_3\n      jumpi\n      dup1\n      0x518bddd9\n      eq\n      tag_4\n      jumpi\n      dup1\n      0xb6d25486\n      eq\n      tag_5\n      jumpi\n      dup1\n      0xbf5348d4\n      eq\n      tag_6\n      jumpi\n    tag_2:\n      0x00\n      dup1\n      revert\n        /* \"contracts/insurance.sol\":961:978  uint public total */\n    tag_3:\n      tag_7\n      tag_8\n      jump\t// in\n    tag_7:\n      mload(0x40)\n      tag_9\n      swap2\n      swap1\n      tag_10\n      jump\t// in\n    tag_9:\n      mload(0x40)\n      dup1\n      swap2\n      sub\n      swap1\n      return\n        /* \"contracts/insurance.sol\":569:734  function getCustomer(string memory id) public  view returns(string memory name, uint age){\r... */\n    tag_4:\n      tag_11\n      0x04\n      dup1\n      calldatasize\n      sub\n      dup2\n      add\n      swap1\n      tag_12\n      swap2\n      swap1\n      tag_13\n      jump\t// in\n    tag_12:\n      tag_14\n      jump\t// in\n    tag_11:\n      mload(0x40)\n      tag_15\n      swap3\n      swap2\n      swap1\n      tag_16\n      jump\t// in\n    tag_15:\n      mload(0x40)\n      dup1\n      swap2\n      sub\n      swap1\n      return\n        /* \"contracts/insurance.sol\":367:509  function saveCustomerDetails(string memory id, string memory name,  uint age) public  {\r... */\n    tag_5:\n      tag_17\n      0x04\n      dup1\n      calldatasize\n      sub\n      dup2\n      add\n      swap1\n      tag_18\n      swap2\n      swap1\n      tag_19\n      jump\t// in\n    tag_18:\n      tag_20\n      jump\t// in\n    tag_17:\n      stop\n        /* \"contracts/insurance.sol\":1006:1635  function setInsurance(string memory  userInput) public  { \r... */\n    tag_6:\n      tag_21\n      0x04\n      dup1\n      calldatasize\n      sub\n      dup2\n      add\n      swap1\n      tag_22\n      swap2\n      swap1\n      tag_13\n      jump\t// in\n    tag_22:\n      tag_23\n      jump\t// in\n    tag_21:\n      stop\n        /* \"contracts/insurance.sol\":961:978  uint public total */\n    tag_8:\n      sload(0x05)\n      dup2\n      jump\t// out\n        /* \"contracts/insurance.sol\":569:734  function getCustomer(string memory id) public  view returns(string memory name, uint age){\r... */\n    tag_14:\n        /* \"contracts/insurance.sol\":629:647  string memory name */\n      0x60\n        /* \"contracts/insurance.sol\":649:657  uint age */\n      0x00\n        /* \"contracts/insurance.sol\":677:684  Mapping */\n      dup1\n        /* \"contracts/insurance.sol\":685:687  id */\n      dup4\n        /* \"contracts/insurance.sol\":677:688  Mapping[id] */\n      mload(0x40)\n      tag_25\n      swap2\n      swap1\n      tag_26\n      jump\t// in\n    tag_25:\n      swap1\n      dup2\n      mstore\n      0x20\n      add\n      mload(0x40)\n      dup1\n      swap2\n      sub\n      swap1\n      keccak256\n        /* \"contracts/insurance.sol\":677:693  Mapping[id].name */\n      0x01\n      add\n        /* \"contracts/insurance.sol\":695:702  Mapping */\n      0x00\n        /* \"contracts/insurance.sol\":703:705  id */\n      dup5\n        /* \"contracts/insurance.sol\":695:706  Mapping[id] */\n      mload(0x40)\n      tag_27\n      swap2\n      swap1\n      tag_26\n      jump\t// in\n    tag_27:\n      swap1\n      dup2\n      mstore\n      0x20\n      add\n      mload(0x40)\n      dup1\n      swap2\n      sub\n      swap1\n      keccak256\n        /* \"contracts/insurance.sol\":695:710  Mapping[id].age */\n      0x02\n      add\n      sload\n        /* \"contracts/insurance.sol\":669:711  return (Mapping[id].name, Mapping[id].age) */\n      dup2\n      dup1\n      sload\n      tag_28\n      swap1\n      tag_29\n      jump\t// in\n    tag_28:\n      dup1\n      0x1f\n      add\n      0x20\n      dup1\n      swap2\n      div\n      mul\n      0x20\n      add\n      mload(0x40)\n      swap1\n      dup2\n      add\n      0x40\n      mstore\n      dup1\n      swap3\n      swap2\n      swap1\n      dup2\n      dup2\n      mstore\n      0x20\n      add\n      dup3\n      dup1\n      sload\n      tag_30\n      swap1\n      tag_29\n      jump\t// in\n    tag_30:\n      dup1\n      iszero\n      tag_31\n      jumpi\n      dup1\n      0x1f\n      lt\n      tag_32\n      jumpi\n      0x0100\n      dup1\n      dup4\n      sload\n      div\n      mul\n      dup4\n      mstore\n      swap2\n      0x20\n      add\n      swap2\n      jump(tag_31)\n    tag_32:\n      dup3\n      add\n      swap2\n      swap1\n      0x00\n      mstore\n      keccak256(0x00, 0x20)\n      swap1\n    tag_33:\n      dup2\n      sload\n      dup2\n      mstore\n      swap1\n      0x01\n      add\n      swap1\n      0x20\n      add\n      dup1\n      dup4\n      gt\n      tag_33\n      jumpi\n      dup3\n      swap1\n      sub\n      0x1f\n      and\n      dup3\n      add\n      swap2\n    tag_31:\n      pop\n      pop\n      pop\n      pop\n      pop\n      swap2\n      pop\n      swap2\n      pop\n      swap2\n      pop\n        /* \"contracts/insurance.sol\":569:734  function getCustomer(string memory id) public  view returns(string memory name, uint age){\r... */\n      swap2\n      pop\n      swap2\n      jump\t// out\n        /* \"contracts/insurance.sol\":367:509  function saveCustomerDetails(string memory id, string memory name,  uint age) public  {\r... */\n    tag_20:\n        /* \"contracts/insurance.sol\":478:501  customer(id, name, age) */\n      mload(0x40)\n      dup1\n      0x60\n      add\n      0x40\n      mstore\n      dup1\n        /* \"contracts/insurance.sol\":487:489  id */\n      dup5\n        /* \"contracts/insurance.sol\":478:501  customer(id, name, age) */\n      dup2\n      mstore\n      0x20\n      add\n        /* \"contracts/insurance.sol\":491:495  name */\n      dup4\n        /* \"contracts/insurance.sol\":478:501  customer(id, name, age) */\n      dup2\n      mstore\n      0x20\n      add\n        /* \"contracts/insurance.sol\":497:500  age */\n      dup3\n        /* \"contracts/insurance.sol\":478:501  customer(id, name, age) */\n      dup2\n      mstore\n      pop\n        /* \"contracts/insurance.sol\":464:471  Mapping */\n      0x00\n        /* \"contracts/insurance.sol\":472:474  id */\n      dup5\n        /* \"contracts/insurance.sol\":464:475  Mapping[id] */\n      mload(0x40)\n      tag_35\n      swap2\n      swap1\n      tag_26\n      jump\t// in\n    tag_35:\n      swap1\n      dup2\n      mstore\n      0x20\n      add\n      mload(0x40)\n      dup1\n      swap2\n      sub\n      swap1\n      keccak256\n        /* \"contracts/insurance.sol\":464:501  Mapping[id] = customer(id, name, age) */\n      0x00\n      dup3\n      add\n      mload\n      dup2\n      0x00\n      add\n      swap1\n      dup1\n      mload\n      swap1\n      0x20\n      add\n      swap1\n      tag_36\n      swap3\n      swap2\n      swap1\n      tag_37\n      jump\t// in\n    tag_36:\n      pop\n      0x20\n      dup3\n      add\n      mload\n      dup2\n      0x01\n      add\n      swap1\n      dup1\n      mload\n      swap1\n      0x20\n      add\n      swap1\n      tag_38\n      swap3\n      swap2\n      swap1\n      tag_37\n      jump\t// in\n    tag_38:\n      pop\n      0x40\n      dup3\n      add\n      mload\n      dup2\n      0x02\n      add\n      sstore\n      swap1\n      pop\n      pop\n        /* \"contracts/insurance.sol\":367:509  function saveCustomerDetails(string memory id, string memory name,  uint age) public  {\r... */\n      pop\n      pop\n      pop\n      jump\t// out\n        /* \"contracts/insurance.sol\":1006:1635  function setInsurance(string memory  userInput) public  { \r... */\n    tag_23:\n        /* \"contracts/insurance.sol\":1387:1396  userInput */\n      dup1\n        /* \"contracts/insurance.sol\":1371:1398  keccak256(bytes(userInput)) */\n      dup1\n      mload\n      swap1\n      0x20\n      add\n      keccak256\n        /* \"contracts/insurance.sol\":1348:1365  type_of_insurance */\n      0x03\n        /* \"contracts/insurance.sol\":1332:1367  keccak256(bytes(type_of_insurance)) */\n      mload(0x40)\n      tag_40\n      swap2\n      swap1\n      tag_41\n      jump\t// in\n    tag_40:\n      mload(0x40)\n      dup1\n      swap2\n      sub\n      swap1\n      keccak256\n        /* \"contracts/insurance.sol\":1332:1398  keccak256(bytes(type_of_insurance)) == keccak256(bytes(userInput)) */\n      eq\n        /* \"contracts/insurance.sol\":1329:1628  if(keccak256(bytes(type_of_insurance)) == keccak256(bytes(userInput))) {\r... */\n      iszero\n      tag_42\n      jumpi\n        /* \"contracts/insurance.sol\":1422:1437  insurance_price */\n      sload(0x02)\n        /* \"contracts/insurance.sol\":1414:1419  total */\n      0x05\n        /* \"contracts/insurance.sol\":1414:1437  total = insurance_price */\n      dup2\n      swap1\n      sstore\n      pop\n        /* \"contracts/insurance.sol\":1329:1628  if(keccak256(bytes(type_of_insurance)) == keccak256(bytes(userInput))) {\r... */\n      jump(tag_43)\n    tag_42:\n        /* \"contracts/insurance.sol\":1612:1613  0 */\n      0x00\n        /* \"contracts/insurance.sol\":1604:1609  total */\n      0x05\n        /* \"contracts/insurance.sol\":1604:1613  total = 0 */\n      dup2\n      swap1\n      sstore\n      pop\n        /* \"contracts/insurance.sol\":1329:1628  if(keccak256(bytes(type_of_insurance)) == keccak256(bytes(userInput))) {\r... */\n    tag_43:\n        /* \"contracts/insurance.sol\":1006:1635  function setInsurance(string memory  userInput) public  { \r... */\n      pop\n      jump\t// out\n    tag_37:\n      dup3\n      dup1\n      sload\n      tag_44\n      swap1\n      tag_29\n      jump\t// in\n    tag_44:\n      swap1\n      0x00\n      mstore\n      keccak256(0x00, 0x20)\n      swap1\n      0x1f\n      add\n      0x20\n      swap1\n      div\n      dup2\n      add\n      swap3\n      dup3\n      tag_46\n      jumpi\n      0x00\n      dup6\n      sstore\n      jump(tag_45)\n    tag_46:\n      dup3\n      0x1f\n      lt\n      tag_47\n      jumpi\n      dup1\n      mload\n      not(0xff)\n      and\n      dup4\n      dup1\n      add\n      or\n      dup6\n      sstore\n      jump(tag_45)\n    tag_47:\n      dup3\n      dup1\n      add\n      0x01\n      add\n      dup6\n      sstore\n      dup3\n      iszero\n      tag_45\n      jumpi\n      swap2\n      dup3\n      add\n    tag_48:\n      dup3\n      dup2\n      gt\n      iszero\n      tag_49\n      jumpi\n      dup3\n      mload\n      dup3\n      sstore\n      swap2\n      0x20\n      add\n      swap2\n      swap1\n      0x01\n      add\n      swap1\n      jump(tag_48)\n    tag_49:\n    tag_45:\n      pop\n      swap1\n      pop\n      tag_50\n      swap2\n      swap1\n      tag_51\n      jump\t// in\n    tag_50:\n      pop\n      swap1\n      jump\t// out\n    tag_51:\n    tag_52:\n      dup1\n      dup3\n      gt\n      iszero\n      tag_53\n      jumpi\n      0x00\n      dup2\n      0x00\n      swap1\n      sstore\n      pop\n      0x01\n      add\n      jump(tag_52)\n    tag_53:\n      pop\n      swap1\n      jump\t// out\n        /* \"#utility.yul\":7:419   */\n    tag_55:\n        /* \"#utility.yul\":85:90   */\n      0x00\n        /* \"#utility.yul\":110:176   */\n      tag_57\n        /* \"#utility.yul\":126:175   */\n      tag_58\n        /* \"#utility.yul\":168:174   */\n      dup5\n        /* \"#utility.yul\":126:175   */\n      tag_59\n      jump\t// in\n    tag_58:\n        /* \"#utility.yul\":110:176   */\n      tag_60\n      jump\t// in\n    tag_57:\n        /* \"#utility.yul\":101:176   */\n      swap1\n      pop\n        /* \"#utility.yul\":199:205   */\n      dup3\n        /* \"#utility.yul\":192:197   */\n      dup2\n        /* \"#utility.yul\":185:206   */\n      mstore\n        /* \"#utility.yul\":237:241   */\n      0x20\n        /* \"#utility.yul\":230:235   */\n      dup2\n        /* \"#utility.yul\":226:242   */\n      add\n        /* \"#utility.yul\":275:278   */\n      dup5\n        /* \"#utility.yul\":266:272   */\n      dup5\n        /* \"#utility.yul\":261:264   */\n      dup5\n        /* \"#utility.yul\":257:273   */\n      add\n        /* \"#utility.yul\":254:279   */\n      gt\n        /* \"#utility.yul\":251:363   */\n      iszero\n      tag_61\n      jumpi\n        /* \"#utility.yul\":282:361   */\n      tag_62\n      tag_63\n      jump\t// in\n    tag_62:\n        /* \"#utility.yul\":251:363   */\n    tag_61:\n        /* \"#utility.yul\":372:413   */\n      tag_64\n        /* \"#utility.yul\":406:412   */\n      dup5\n        /* \"#utility.yul\":401:404   */\n      dup3\n        /* \"#utility.yul\":396:399   */\n      dup6\n        /* \"#utility.yul\":372:413   */\n      tag_65\n      jump\t// in\n    tag_64:\n        /* \"#utility.yul\":91:419   */\n      pop\n        /* \"#utility.yul\":7:419   */\n      swap4\n      swap3\n      pop\n      pop\n      pop\n      jump\t// out\n        /* \"#utility.yul\":439:779   */\n    tag_66:\n        /* \"#utility.yul\":495:500   */\n      0x00\n        /* \"#utility.yul\":544:547   */\n      dup3\n        /* \"#utility.yul\":537:541   */\n      0x1f\n        /* \"#utility.yul\":529:535   */\n      dup4\n        /* \"#utility.yul\":525:542   */\n      add\n        /* \"#utility.yul\":521:548   */\n      slt\n        /* \"#utility.yul\":511:633   */\n      tag_68\n      jumpi\n        /* \"#utility.yul\":552:631   */\n      tag_69\n      tag_70\n      jump\t// in\n    tag_69:\n        /* \"#utility.yul\":511:633   */\n    tag_68:\n        /* \"#utility.yul\":669:675   */\n      dup2\n        /* \"#utility.yul\":656:676   */\n      calldataload\n        /* \"#utility.yul\":694:773   */\n      tag_71\n        /* \"#utility.yul\":769:772   */\n      dup5\n        /* \"#utility.yul\":761:767   */\n      dup3\n        /* \"#utility.yul\":754:758   */\n      0x20\n        /* \"#utility.yul\":746:752   */\n      dup7\n        /* \"#utility.yul\":742:759   */\n      add\n        /* \"#utility.yul\":694:773   */\n      tag_55\n      jump\t// in\n    tag_71:\n        /* \"#utility.yul\":685:773   */\n      swap2\n      pop\n        /* \"#utility.yul\":501:779   */\n      pop\n        /* \"#utility.yul\":439:779   */\n      swap3\n      swap2\n      pop\n      pop\n      jump\t// out\n        /* \"#utility.yul\":785:924   */\n    tag_72:\n        /* \"#utility.yul\":831:836   */\n      0x00\n        /* \"#utility.yul\":869:875   */\n      dup2\n        /* \"#utility.yul\":856:876   */\n      calldataload\n        /* \"#utility.yul\":847:876   */\n      swap1\n      pop\n        /* \"#utility.yul\":885:918   */\n      tag_74\n        /* \"#utility.yul\":912:917   */\n      dup2\n        /* \"#utility.yul\":885:918   */\n      tag_75\n      jump\t// in\n    tag_74:\n        /* \"#utility.yul\":785:924   */\n      swap3\n      swap2\n      pop\n      pop\n      jump\t// out\n        /* \"#utility.yul\":930:1439   */\n    tag_13:\n        /* \"#utility.yul\":999:1005   */\n      0x00\n        /* \"#utility.yul\":1048:1050   */\n      0x20\n        /* \"#utility.yul\":1036:1045   */\n      dup3\n        /* \"#utility.yul\":1027:1034   */\n      dup5\n        /* \"#utility.yul\":1023:1046   */\n      sub\n        /* \"#utility.yul\":1019:1051   */\n      slt\n        /* \"#utility.yul\":1016:1135   */\n      iszero\n      tag_77\n      jumpi\n        /* \"#utility.yul\":1054:1133   */\n      tag_78\n      tag_79\n      jump\t// in\n    tag_78:\n        /* \"#utility.yul\":1016:1135   */\n    tag_77:\n        /* \"#utility.yul\":1202:1203   */\n      0x00\n        /* \"#utility.yul\":1191:1200   */\n      dup3\n        /* \"#utility.yul\":1187:1204   */\n      add\n        /* \"#utility.yul\":1174:1205   */\n      calldataload\n        /* \"#utility.yul\":1232:1250   */\n      0xffffffffffffffff\n        /* \"#utility.yul\":1224:1230   */\n      dup2\n        /* \"#utility.yul\":1221:1251   */\n      gt\n        /* \"#utility.yul\":1218:1335   */\n      iszero\n      tag_80\n      jumpi\n        /* \"#utility.yul\":1254:1333   */\n      tag_81\n      tag_82\n      jump\t// in\n    tag_81:\n        /* \"#utility.yul\":1218:1335   */\n    tag_80:\n        /* \"#utility.yul\":1359:1422   */\n      tag_83\n        /* \"#utility.yul\":1414:1421   */\n      dup5\n        /* \"#utility.yul\":1405:1411   */\n      dup3\n        /* \"#utility.yul\":1394:1403   */\n      dup6\n        /* \"#utility.yul\":1390:1412   */\n      add\n        /* \"#utility.yul\":1359:1422   */\n      tag_66\n      jump\t// in\n    tag_83:\n        /* \"#utility.yul\":1349:1422   */\n      swap2\n      pop\n        /* \"#utility.yul\":1145:1432   */\n      pop\n        /* \"#utility.yul\":930:1439   */\n      swap3\n      swap2\n      pop\n      pop\n      jump\t// out\n        /* \"#utility.yul\":1445:2424   */\n    tag_19:\n        /* \"#utility.yul\":1542:1548   */\n      0x00\n        /* \"#utility.yul\":1550:1556   */\n      dup1\n        /* \"#utility.yul\":1558:1564   */\n      0x00\n        /* \"#utility.yul\":1607:1609   */\n      0x60\n        /* \"#utility.yul\":1595:1604   */\n      dup5\n        /* \"#utility.yul\":1586:1593   */\n      dup7\n        /* \"#utility.yul\":1582:1605   */\n      sub\n        /* \"#utility.yul\":1578:1610   */\n      slt\n        /* \"#utility.yul\":1575:1694   */\n      iszero\n      tag_85\n      jumpi\n        /* \"#utility.yul\":1613:1692   */\n      tag_86\n      tag_79\n      jump\t// in\n    tag_86:\n        /* \"#utility.yul\":1575:1694   */\n    tag_85:\n        /* \"#utility.yul\":1761:1762   */\n      0x00\n        /* \"#utility.yul\":1750:1759   */\n      dup5\n        /* \"#utility.yul\":1746:1763   */\n      add\n        /* \"#utility.yul\":1733:1764   */\n      calldataload\n        /* \"#utility.yul\":1791:1809   */\n      0xffffffffffffffff\n        /* \"#utility.yul\":1783:1789   */\n      dup2\n        /* \"#utility.yul\":1780:1810   */\n      gt\n        /* \"#utility.yul\":1777:1894   */\n      iszero\n      tag_87\n      jumpi\n        /* \"#utility.yul\":1813:1892   */\n      tag_88\n      tag_82\n      jump\t// in\n    tag_88:\n        /* \"#utility.yul\":1777:1894   */\n    tag_87:\n        /* \"#utility.yul\":1918:1981   */\n      tag_89\n        /* \"#utility.yul\":1973:1980   */\n      dup7\n        /* \"#utility.yul\":1964:1970   */\n      dup3\n        /* \"#utility.yul\":1953:1962   */\n      dup8\n        /* \"#utility.yul\":1949:1971   */\n      add\n        /* \"#utility.yul\":1918:1981   */\n      tag_66\n      jump\t// in\n    tag_89:\n        /* \"#utility.yul\":1908:1981   */\n      swap4\n      pop\n        /* \"#utility.yul\":1704:1991   */\n      pop\n        /* \"#utility.yul\":2058:2060   */\n      0x20\n        /* \"#utility.yul\":2047:2056   */\n      dup5\n        /* \"#utility.yul\":2043:2061   */\n      add\n        /* \"#utility.yul\":2030:2062   */\n      calldataload\n        /* \"#utility.yul\":2089:2107   */\n      0xffffffffffffffff\n        /* \"#utility.yul\":2081:2087   */\n      dup2\n        /* \"#utility.yul\":2078:2108   */\n      gt\n        /* \"#utility.yul\":2075:2192   */\n      iszero\n      tag_90\n      jumpi\n        /* \"#utility.yul\":2111:2190   */\n      tag_91\n      tag_82\n      jump\t// in\n    tag_91:\n        /* \"#utility.yul\":2075:2192   */\n    tag_90:\n        /* \"#utility.yul\":2216:2279   */\n      tag_92\n        /* \"#utility.yul\":2271:2278   */\n      dup7\n        /* \"#utility.yul\":2262:2268   */\n      dup3\n        /* \"#utility.yul\":2251:2260   */\n      dup8\n        /* \"#utility.yul\":2247:2269   */\n      add\n        /* \"#utility.yul\":2216:2279   */\n      tag_66\n      jump\t// in\n    tag_92:\n        /* \"#utility.yul\":2206:2279   */\n      swap3\n      pop\n        /* \"#utility.yul\":2001:2289   */\n      pop\n        /* \"#utility.yul\":2328:2330   */\n      0x40\n        /* \"#utility.yul\":2354:2407   */\n      tag_93\n        /* \"#utility.yul\":2399:2406   */\n      dup7\n        /* \"#utility.yul\":2390:2396   */\n      dup3\n        /* \"#utility.yul\":2379:2388   */\n      dup8\n        /* \"#utility.yul\":2375:2397   */\n      add\n        /* \"#utility.yul\":2354:2407   */\n      tag_72\n      jump\t// in\n    tag_93:\n        /* \"#utility.yul\":2344:2407   */\n      swap2\n      pop\n        /* \"#utility.yul\":2299:2417   */\n      pop\n        /* \"#utility.yul\":1445:2424   */\n      swap3\n      pop\n      swap3\n      pop\n      swap3\n      jump\t// out\n        /* \"#utility.yul\":2452:3301   */\n    tag_94:\n        /* \"#utility.yul\":2557:2560   */\n      0x00\n        /* \"#utility.yul\":2594:2599   */\n      dup2\n        /* \"#utility.yul\":2588:2600   */\n      sload\n        /* \"#utility.yul\":2623:2659   */\n      tag_96\n        /* \"#utility.yul\":2649:2658   */\n      dup2\n        /* \"#utility.yul\":2623:2659   */\n      tag_29\n      jump\t// in\n    tag_96:\n        /* \"#utility.yul\":2675:2763   */\n      tag_97\n        /* \"#utility.yul\":2756:2762   */\n      dup2\n        /* \"#utility.yul\":2751:2754   */\n      dup7\n        /* \"#utility.yul\":2675:2763   */\n      tag_98\n      jump\t// in\n    tag_97:\n        /* \"#utility.yul\":2668:2763   */\n      swap5\n      pop\n        /* \"#utility.yul\":2794:2795   */\n      0x01\n        /* \"#utility.yul\":2783:2792   */\n      dup3\n        /* \"#utility.yul\":2779:2796   */\n      and\n        /* \"#utility.yul\":2810:2811   */\n      0x00\n        /* \"#utility.yul\":2805:2942   */\n      dup2\n      eq\n      tag_100\n      jumpi\n        /* \"#utility.yul\":2956:2957   */\n      0x01\n        /* \"#utility.yul\":2951:3295   */\n      dup2\n      eq\n      tag_101\n      jumpi\n        /* \"#utility.yul\":2772:3295   */\n      jump(tag_99)\n        /* \"#utility.yul\":2805:2942   */\n    tag_100:\n        /* \"#utility.yul\":2889:2893   */\n      0xff\n        /* \"#utility.yul\":2885:2894   */\n      not\n        /* \"#utility.yul\":2874:2883   */\n      dup4\n        /* \"#utility.yul\":2870:2895   */\n      and\n        /* \"#utility.yul\":2865:2868   */\n      dup7\n        /* \"#utility.yul\":2858:2896   */\n      mstore\n        /* \"#utility.yul\":2925:2931   */\n      dup2\n        /* \"#utility.yul\":2920:2923   */\n      dup7\n        /* \"#utility.yul\":2916:2932   */\n      add\n        /* \"#utility.yul\":2909:2932   */\n      swap4\n      pop\n        /* \"#utility.yul\":2805:2942   */\n      jump(tag_99)\n        /* \"#utility.yul\":2951:3295   */\n    tag_101:\n        /* \"#utility.yul\":3018:3059   */\n      tag_102\n        /* \"#utility.yul\":3053:3058   */\n      dup6\n        /* \"#utility.yul\":3018:3059   */\n      tag_103\n      jump\t// in\n    tag_102:\n        /* \"#utility.yul\":3081:3082   */\n      0x00\n        /* \"#utility.yul\":3095:3249   */\n    tag_104:\n        /* \"#utility.yul\":3109:3115   */\n      dup4\n        /* \"#utility.yul\":3106:3107   */\n      dup2\n        /* \"#utility.yul\":3103:3116   */\n      lt\n        /* \"#utility.yul\":3095:3249   */\n      iszero\n      tag_106\n      jumpi\n        /* \"#utility.yul\":3183:3190   */\n      dup2\n        /* \"#utility.yul\":3177:3191   */\n      sload\n        /* \"#utility.yul\":3173:3174   */\n      dup2\n        /* \"#utility.yul\":3168:3171   */\n      dup10\n        /* \"#utility.yul\":3164:3175   */\n      add\n        /* \"#utility.yul\":3157:3192   */\n      mstore\n        /* \"#utility.yul\":3233:3234   */\n      0x01\n        /* \"#utility.yul\":3224:3231   */\n      dup3\n        /* \"#utility.yul\":3220:3235   */\n      add\n        /* \"#utility.yul\":3209:3235   */\n      swap2\n      pop\n        /* \"#utility.yul\":3131:3135   */\n      0x20\n        /* \"#utility.yul\":3128:3129   */\n      dup2\n        /* \"#utility.yul\":3124:3136   */\n      add\n        /* \"#utility.yul\":3119:3136   */\n      swap1\n      pop\n        /* \"#utility.yul\":3095:3249   */\n      jump(tag_104)\n    tag_106:\n        /* \"#utility.yul\":3278:3284   */\n      dup4\n        /* \"#utility.yul\":3273:3276   */\n      dup9\n        /* \"#utility.yul\":3269:3285   */\n      add\n        /* \"#utility.yul\":3262:3285   */\n      swap6\n      pop\n        /* \"#utility.yul\":2958:3295   */\n      pop\n      pop\n        /* \"#utility.yul\":2772:3295   */\n    tag_99:\n      pop\n        /* \"#utility.yul\":2561:3301   */\n      pop\n      pop\n        /* \"#utility.yul\":2452:3301   */\n      swap3\n      swap2\n      pop\n      pop\n      jump\t// out\n        /* \"#utility.yul\":3307:3671   */\n    tag_107:\n        /* \"#utility.yul\":3395:3398   */\n      0x00\n        /* \"#utility.yul\":3423:3462   */\n      tag_109\n        /* \"#utility.yul\":3456:3461   */\n      dup3\n        /* \"#utility.yul\":3423:3462   */\n      tag_110\n      jump\t// in\n    tag_109:\n        /* \"#utility.yul\":3478:3549   */\n      tag_111\n        /* \"#utility.yul\":3542:3548   */\n      dup2\n        /* \"#utility.yul\":3537:3540   */\n      dup6\n        /* \"#utility.yul\":3478:3549   */\n      tag_112\n      jump\t// in\n    tag_111:\n        /* \"#utility.yul\":3471:3549   */\n      swap4\n      pop\n        /* \"#utility.yul\":3558:3610   */\n      tag_113\n        /* \"#utility.yul\":3603:3609   */\n      dup2\n        /* \"#utility.yul\":3598:3601   */\n      dup6\n        /* \"#utility.yul\":3591:3595   */\n      0x20\n        /* \"#utility.yul\":3584:3589   */\n      dup7\n        /* \"#utility.yul\":3580:3596   */\n      add\n        /* \"#utility.yul\":3558:3610   */\n      tag_114\n      jump\t// in\n    tag_113:\n        /* \"#utility.yul\":3635:3664   */\n      tag_115\n        /* \"#utility.yul\":3657:3663   */\n      dup2\n        /* \"#utility.yul\":3635:3664   */\n      tag_116\n      jump\t// in\n    tag_115:\n        /* \"#utility.yul\":3630:3633   */\n      dup5\n        /* \"#utility.yul\":3626:3665   */\n      add\n        /* \"#utility.yul\":3619:3665   */\n      swap2\n      pop\n        /* \"#utility.yul\":3399:3671   */\n      pop\n        /* \"#utility.yul\":3307:3671   */\n      swap3\n      swap2\n      pop\n      pop\n      jump\t// out\n        /* \"#utility.yul\":3677:4054   */\n    tag_117:\n        /* \"#utility.yul\":3783:3786   */\n      0x00\n        /* \"#utility.yul\":3811:3850   */\n      tag_119\n        /* \"#utility.yul\":3844:3849   */\n      dup3\n        /* \"#utility.yul\":3811:3850   */\n      tag_110\n      jump\t// in\n    tag_119:\n        /* \"#utility.yul\":3866:3955   */\n      tag_120\n        /* \"#utility.yul\":3948:3954   */\n      dup2\n        /* \"#utility.yul\":3943:3946   */\n      dup6\n        /* \"#utility.yul\":3866:3955   */\n      tag_121\n      jump\t// in\n    tag_120:\n        /* \"#utility.yul\":3859:3955   */\n      swap4\n      pop\n        /* \"#utility.yul\":3964:4016   */\n      tag_122\n        /* \"#utility.yul\":4009:4015   */\n      dup2\n        /* \"#utility.yul\":4004:4007   */\n      dup6\n        /* \"#utility.yul\":3997:4001   */\n      0x20\n        /* \"#utility.yul\":3990:3995   */\n      dup7\n        /* \"#utility.yul\":3986:4002   */\n      add\n        /* \"#utility.yul\":3964:4016   */\n      tag_114\n      jump\t// in\n    tag_122:\n        /* \"#utility.yul\":4041:4047   */\n      dup1\n        /* \"#utility.yul\":4036:4039   */\n      dup5\n        /* \"#utility.yul\":4032:4048   */\n      add\n        /* \"#utility.yul\":4025:4048   */\n      swap2\n      pop\n        /* \"#utility.yul\":3787:4054   */\n      pop\n        /* \"#utility.yul\":3677:4054   */\n      swap3\n      swap2\n      pop\n      pop\n      jump\t// out\n        /* \"#utility.yul\":4060:4178   */\n    tag_123:\n        /* \"#utility.yul\":4147:4171   */\n      tag_125\n        /* \"#utility.yul\":4165:4170   */\n      dup2\n        /* \"#utility.yul\":4147:4171   */\n      tag_126\n      jump\t// in\n    tag_125:\n        /* \"#utility.yul\":4142:4145   */\n      dup3\n        /* \"#utility.yul\":4135:4172   */\n      mstore\n        /* \"#utility.yul\":4060:4178   */\n      pop\n      pop\n      jump\t// out\n        /* \"#utility.yul\":4184:4457   */\n    tag_41:\n        /* \"#utility.yul\":4315:4318   */\n      0x00\n        /* \"#utility.yul\":4337:4431   */\n      tag_128\n        /* \"#utility.yul\":4427:4430   */\n      dup3\n        /* \"#utility.yul\":4418:4424   */\n      dup5\n        /* \"#utility.yul\":4337:4431   */\n      tag_94\n      jump\t// in\n    tag_128:\n        /* \"#utility.yul\":4330:4431   */\n      swap2\n      pop\n        /* \"#utility.yul\":4448:4451   */\n      dup2\n        /* \"#utility.yul\":4441:4451   */\n      swap1\n      pop\n        /* \"#utility.yul\":4184:4457   */\n      swap3\n      swap2\n      pop\n      pop\n      jump\t// out\n        /* \"#utility.yul\":4463:4738   */\n    tag_26:\n        /* \"#utility.yul\":4595:4598   */\n      0x00\n        /* \"#utility.yul\":4617:4712   */\n      tag_130\n        /* \"#utility.yul\":4708:4711   */\n      dup3\n        /* \"#utility.yul\":4699:4705   */\n      dup5\n        /* \"#utility.yul\":4617:4712   */\n      tag_117\n      jump\t// in\n    tag_130:\n        /* \"#utility.yul\":4610:4712   */\n      swap2\n      pop\n        /* \"#utility.yul\":4729:4732   */\n      dup2\n        /* \"#utility.yul\":4722:4732   */\n      swap1\n      pop\n        /* \"#utility.yul\":4463:4738   */\n      swap3\n      swap2\n      pop\n      pop\n      jump\t// out\n        /* \"#utility.yul\":4744:5167   */\n    tag_16:\n        /* \"#utility.yul\":4885:4889   */\n      0x00\n        /* \"#utility.yul\":4923:4925   */\n      0x40\n        /* \"#utility.yul\":4912:4921   */\n      dup3\n        /* \"#utility.yul\":4908:4926   */\n      add\n        /* \"#utility.yul\":4900:4926   */\n      swap1\n      pop\n        /* \"#utility.yul\":4972:4981   */\n      dup2\n        /* \"#utility.yul\":4966:4970   */\n      dup2\n        /* \"#utility.yul\":4962:4982   */\n      sub\n        /* \"#utility.yul\":4958:4959   */\n      0x00\n        /* \"#utility.yul\":4947:4956   */\n      dup4\n        /* \"#utility.yul\":4943:4960   */\n      add\n        /* \"#utility.yul\":4936:4983   */\n      mstore\n        /* \"#utility.yul\":5000:5078   */\n      tag_132\n        /* \"#utility.yul\":5073:5077   */\n      dup2\n        /* \"#utility.yul\":5064:5070   */\n      dup6\n        /* \"#utility.yul\":5000:5078   */\n      tag_107\n      jump\t// in\n    tag_132:\n        /* \"#utility.yul\":4992:5078   */\n      swap1\n      pop\n        /* \"#utility.yul\":5088:5160   */\n      tag_133\n        /* \"#utility.yul\":5156:5158   */\n      0x20\n        /* \"#utility.yul\":5145:5154   */\n      dup4\n        /* \"#utility.yul\":5141:5159   */\n      add\n        /* \"#utility.yul\":5132:5138   */\n      dup5\n        /* \"#utility.yul\":5088:5160   */\n      tag_123\n      jump\t// in\n    tag_133:\n        /* \"#utility.yul\":4744:5167   */\n      swap4\n      swap3\n      pop\n      pop\n      pop\n      jump\t// out\n        /* \"#utility.yul\":5173:5395   */\n    tag_10:\n        /* \"#utility.yul\":5266:5270   */\n      0x00\n        /* \"#utility.yul\":5304:5306   */\n      0x20\n        /* \"#utility.yul\":5293:5302   */\n      dup3\n        /* \"#utility.yul\":5289:5307   */\n      add\n        /* \"#utility.yul\":5281:5307   */\n      swap1\n      pop\n        /* \"#utility.yul\":5317:5388   */\n      tag_135\n        /* \"#utility.yul\":5385:5386   */\n      0x00\n        /* \"#utility.yul\":5374:5383   */\n      dup4\n        /* \"#utility.yul\":5370:5387   */\n      add\n        /* \"#utility.yul\":5361:5367   */\n      dup5\n        /* \"#utility.yul\":5317:5388   */\n      tag_123\n      jump\t// in\n    tag_135:\n        /* \"#utility.yul\":5173:5395   */\n      swap3\n      swap2\n      pop\n      pop\n      jump\t// out\n        /* \"#utility.yul\":5401:5530   */\n    tag_60:\n        /* \"#utility.yul\":5435:5441   */\n      0x00\n        /* \"#utility.yul\":5462:5482   */\n      tag_137\n      tag_138\n      jump\t// in\n    tag_137:\n        /* \"#utility.yul\":5452:5482   */\n      swap1\n      pop\n        /* \"#utility.yul\":5491:5524   */\n      tag_139\n        /* \"#utility.yul\":5519:5523   */\n      dup3\n        /* \"#utility.yul\":5511:5517   */\n      dup3\n        /* \"#utility.yul\":5491:5524   */\n      tag_140\n      jump\t// in\n    tag_139:\n        /* \"#utility.yul\":5401:5530   */\n      swap2\n      swap1\n      pop\n      jump\t// out\n        /* \"#utility.yul\":5536:5611   */\n    tag_138:\n        /* \"#utility.yul\":5569:5575   */\n      0x00\n        /* \"#utility.yul\":5602:5604   */\n      0x40\n        /* \"#utility.yul\":5596:5605   */\n      mload\n        /* \"#utility.yul\":5586:5605   */\n      swap1\n      pop\n        /* \"#utility.yul\":5536:5611   */\n      swap1\n      jump\t// out\n        /* \"#utility.yul\":5617:5925   */\n    tag_59:\n        /* \"#utility.yul\":5679:5683   */\n      0x00\n        /* \"#utility.yul\":5769:5787   */\n      0xffffffffffffffff\n        /* \"#utility.yul\":5761:5767   */\n      dup3\n        /* \"#utility.yul\":5758:5788   */\n      gt\n        /* \"#utility.yul\":5755:5811   */\n      iszero\n      tag_143\n      jumpi\n        /* \"#utility.yul\":5791:5809   */\n      tag_144\n      tag_145\n      jump\t// in\n    tag_144:\n        /* \"#utility.yul\":5755:5811   */\n    tag_143:\n        /* \"#utility.yul\":5829:5858   */\n      tag_146\n        /* \"#utility.yul\":5851:5857   */\n      dup3\n        /* \"#utility.yul\":5829:5858   */\n      tag_116\n      jump\t// in\n    tag_146:\n        /* \"#utility.yul\":5821:5858   */\n      swap1\n      pop\n        /* \"#utility.yul\":5913:5917   */\n      0x20\n        /* \"#utility.yul\":5907:5911   */\n      dup2\n        /* \"#utility.yul\":5903:5918   */\n      add\n        /* \"#utility.yul\":5895:5918   */\n      swap1\n      pop\n        /* \"#utility.yul\":5617:5925   */\n      swap2\n      swap1\n      pop\n      jump\t// out\n        /* \"#utility.yul\":5931:6075   */\n    tag_103:\n        /* \"#utility.yul\":5983:5987   */\n      0x00\n        /* \"#utility.yul\":6006:6009   */\n      dup2\n        /* \"#utility.yul\":5998:6009   */\n      swap1\n      pop\n        /* \"#utility.yul\":6029:6032   */\n      dup2\n        /* \"#utility.yul\":6026:6027   */\n      0x00\n        /* \"#utility.yul\":6019:6033   */\n      mstore\n        /* \"#utility.yul\":6063:6067   */\n      0x20\n        /* \"#utility.yul\":6060:6061   */\n      0x00\n        /* \"#utility.yul\":6050:6068   */\n      keccak256\n        /* \"#utility.yul\":6042:6068   */\n      swap1\n      pop\n        /* \"#utility.yul\":5931:6075   */\n      swap2\n      swap1\n      pop\n      jump\t// out\n        /* \"#utility.yul\":6081:6180   */\n    tag_110:\n        /* \"#utility.yul\":6133:6139   */\n      0x00\n        /* \"#utility.yul\":6167:6172   */\n      dup2\n        /* \"#utility.yul\":6161:6173   */\n      mload\n        /* \"#utility.yul\":6151:6173   */\n      swap1\n      pop\n        /* \"#utility.yul\":6081:6180   */\n      swap2\n      swap1\n      pop\n      jump\t// out\n        /* \"#utility.yul\":6186:6333   */\n    tag_98:\n        /* \"#utility.yul\":6287:6298   */\n      0x00\n        /* \"#utility.yul\":6324:6327   */\n      dup2\n        /* \"#utility.yul\":6309:6327   */\n      swap1\n      pop\n        /* \"#utility.yul\":6186:6333   */\n      swap3\n      swap2\n      pop\n      pop\n      jump\t// out\n        /* \"#utility.yul\":6339:6508   */\n    tag_112:\n        /* \"#utility.yul\":6423:6434   */\n      0x00\n        /* \"#utility.yul\":6457:6463   */\n      dup3\n        /* \"#utility.yul\":6452:6455   */\n      dup3\n        /* \"#utility.yul\":6445:6464   */\n      mstore\n        /* \"#utility.yul\":6497:6501   */\n      0x20\n        /* \"#utility.yul\":6492:6495   */\n      dup3\n        /* \"#utility.yul\":6488:6502   */\n      add\n        /* \"#utility.yul\":6473:6502   */\n      swap1\n      pop\n        /* \"#utility.yul\":6339:6508   */\n      swap3\n      swap2\n      pop\n      pop\n      jump\t// out\n        /* \"#utility.yul\":6514:6662   */\n    tag_121:\n        /* \"#utility.yul\":6616:6627   */\n      0x00\n        /* \"#utility.yul\":6653:6656   */\n      dup2\n        /* \"#utility.yul\":6638:6656   */\n      swap1\n      pop\n        /* \"#utility.yul\":6514:6662   */\n      swap3\n      swap2\n      pop\n      pop\n      jump\t// out\n        /* \"#utility.yul\":6668:6745   */\n    tag_126:\n        /* \"#utility.yul\":6705:6712   */\n      0x00\n        /* \"#utility.yul\":6734:6739   */\n      dup2\n        /* \"#utility.yul\":6723:6739   */\n      swap1\n      pop\n        /* \"#utility.yul\":6668:6745   */\n      swap2\n      swap1\n      pop\n      jump\t// out\n        /* \"#utility.yul\":6751:6905   */\n    tag_65:\n        /* \"#utility.yul\":6835:6841   */\n      dup3\n        /* \"#utility.yul\":6830:6833   */\n      dup2\n        /* \"#utility.yul\":6825:6828   */\n      dup4\n        /* \"#utility.yul\":6812:6842   */\n      calldatacopy\n        /* \"#utility.yul\":6897:6898   */\n      0x00\n        /* \"#utility.yul\":6888:6894   */\n      dup4\n        /* \"#utility.yul\":6883:6886   */\n      dup4\n        /* \"#utility.yul\":6879:6895   */\n      add\n        /* \"#utility.yul\":6872:6899   */\n      mstore\n        /* \"#utility.yul\":6751:6905   */\n      pop\n      pop\n      pop\n      jump\t// out\n        /* \"#utility.yul\":6911:7218   */\n    tag_114:\n        /* \"#utility.yul\":6979:6980   */\n      0x00\n        /* \"#utility.yul\":6989:7102   */\n    tag_155:\n        /* \"#utility.yul\":7003:7009   */\n      dup4\n        /* \"#utility.yul\":7000:7001   */\n      dup2\n        /* \"#utility.yul\":6997:7010   */\n      lt\n        /* \"#utility.yul\":6989:7102   */\n      iszero\n      tag_157\n      jumpi\n        /* \"#utility.yul\":7088:7089   */\n      dup1\n        /* \"#utility.yul\":7083:7086   */\n      dup3\n        /* \"#utility.yul\":7079:7090   */\n      add\n        /* \"#utility.yul\":7073:7091   */\n      mload\n        /* \"#utility.yul\":7069:7070   */\n      dup2\n        /* \"#utility.yul\":7064:7067   */\n      dup5\n        /* \"#utility.yul\":7060:7071   */\n      add\n        /* \"#utility.yul\":7053:7092   */\n      mstore\n        /* \"#utility.yul\":7025:7027   */\n      0x20\n        /* \"#utility.yul\":7022:7023   */\n      dup2\n        /* \"#utility.yul\":7018:7028   */\n      add\n        /* \"#utility.yul\":7013:7028   */\n      swap1\n      pop\n        /* \"#utility.yul\":6989:7102   */\n      jump(tag_155)\n    tag_157:\n        /* \"#utility.yul\":7120:7126   */\n      dup4\n        /* \"#utility.yul\":7117:7118   */\n      dup2\n        /* \"#utility.yul\":7114:7127   */\n      gt\n        /* \"#utility.yul\":7111:7212   */\n      iszero\n      tag_158\n      jumpi\n        /* \"#utility.yul\":7200:7201   */\n      0x00\n        /* \"#utility.yul\":7191:7197   */\n      dup5\n        /* \"#utility.yul\":7186:7189   */\n      dup5\n        /* \"#utility.yul\":7182:7198   */\n      add\n        /* \"#utility.yul\":7175:7202   */\n      mstore\n        /* \"#utility.yul\":7111:7212   */\n    tag_158:\n        /* \"#utility.yul\":6960:7218   */\n      pop\n        /* \"#utility.yul\":6911:7218   */\n      pop\n      pop\n      pop\n      jump\t// out\n        /* \"#utility.yul\":7224:7544   */\n    tag_29:\n        /* \"#utility.yul\":7268:7274   */\n      0x00\n        /* \"#utility.yul\":7305:7306   */\n      0x02\n        /* \"#utility.yul\":7299:7303   */\n      dup3\n        /* \"#utility.yul\":7295:7307   */\n      div\n        /* \"#utility.yul\":7285:7307   */\n      swap1\n      pop\n        /* \"#utility.yul\":7352:7353   */\n      0x01\n        /* \"#utility.yul\":7346:7350   */\n      dup3\n        /* \"#utility.yul\":7342:7354   */\n      and\n        /* \"#utility.yul\":7373:7391   */\n      dup1\n        /* \"#utility.yul\":7363:7444   */\n      tag_160\n      jumpi\n        /* \"#utility.yul\":7429:7433   */\n      0x7f\n        /* \"#utility.yul\":7421:7427   */\n      dup3\n        /* \"#utility.yul\":7417:7434   */\n      and\n        /* \"#utility.yul\":7407:7434   */\n      swap2\n      pop\n        /* \"#utility.yul\":7363:7444   */\n    tag_160:\n        /* \"#utility.yul\":7491:7493   */\n      0x20\n        /* \"#utility.yul\":7483:7489   */\n      dup3\n        /* \"#utility.yul\":7480:7494   */\n      lt\n        /* \"#utility.yul\":7460:7478   */\n      dup2\n        /* \"#utility.yul\":7457:7495   */\n      eq\n        /* \"#utility.yul\":7454:7538   */\n      iszero\n      tag_161\n      jumpi\n        /* \"#utility.yul\":7510:7528   */\n      tag_162\n      tag_163\n      jump\t// in\n    tag_162:\n        /* \"#utility.yul\":7454:7538   */\n    tag_161:\n        /* \"#utility.yul\":7275:7544   */\n      pop\n        /* \"#utility.yul\":7224:7544   */\n      swap2\n      swap1\n      pop\n      jump\t// out\n        /* \"#utility.yul\":7550:7831   */\n    tag_140:\n        /* \"#utility.yul\":7633:7660   */\n      tag_165\n        /* \"#utility.yul\":7655:7659   */\n      dup3\n        /* \"#utility.yul\":7633:7660   */\n      tag_116\n      jump\t// in\n    tag_165:\n        /* \"#utility.yul\":7625:7631   */\n      dup2\n        /* \"#utility.yul\":7621:7661   */\n      add\n        /* \"#utility.yul\":7763:7769   */\n      dup2\n        /* \"#utility.yul\":7751:7761   */\n      dup2\n        /* \"#utility.yul\":7748:7770   */\n      lt\n        /* \"#utility.yul\":7727:7745   */\n      0xffffffffffffffff\n        /* \"#utility.yul\":7715:7725   */\n      dup3\n        /* \"#utility.yul\":7712:7746   */\n      gt\n        /* \"#utility.yul\":7709:7771   */\n      or\n        /* \"#utility.yul\":7706:7794   */\n      iszero\n      tag_166\n      jumpi\n        /* \"#utility.yul\":7774:7792   */\n      tag_167\n      tag_145\n      jump\t// in\n    tag_167:\n        /* \"#utility.yul\":7706:7794   */\n    tag_166:\n        /* \"#utility.yul\":7814:7824   */\n      dup1\n        /* \"#utility.yul\":7810:7812   */\n      0x40\n        /* \"#utility.yul\":7803:7825   */\n      mstore\n        /* \"#utility.yul\":7593:7831   */\n      pop\n        /* \"#utility.yul\":7550:7831   */\n      pop\n      pop\n      jump\t// out\n        /* \"#utility.yul\":7837:8017   */\n    tag_163:\n        /* \"#utility.yul\":7885:7962   */\n      0x4e487b7100000000000000000000000000000000000000000000000000000000\n        /* \"#utility.yul\":7882:7883   */\n      0x00\n        /* \"#utility.yul\":7875:7963   */\n      mstore\n        /* \"#utility.yul\":7982:7986   */\n      0x22\n        /* \"#utility.yul\":7979:7980   */\n      0x04\n        /* \"#utility.yul\":7972:7987   */\n      mstore\n        /* \"#utility.yul\":8006:8010   */\n      0x24\n        /* \"#utility.yul\":8003:8004   */\n      0x00\n        /* \"#utility.yul\":7996:8011   */\n      revert\n        /* \"#utility.yul\":8023:8203   */\n    tag_145:\n        /* \"#utility.yul\":8071:8148   */\n      0x4e487b7100000000000000000000000000000000000000000000000000000000\n        /* \"#utility.yul\":8068:8069   */\n      0x00\n        /* \"#utility.yul\":8061:8149   */\n      mstore\n        /* \"#utility.yul\":8168:8172   */\n      0x41\n        /* \"#utility.yul\":8165:8166   */\n      0x04\n        /* \"#utility.yul\":8158:8173   */\n      mstore\n        /* \"#utility.yul\":8192:8196   */\n      0x24\n        /* \"#utility.yul\":8189:8190   */\n      0x00\n        /* \"#utility.yul\":8182:8197   */\n      revert\n        /* \"#utility.yul\":8209:8326   */\n    tag_70:\n        /* \"#utility.yul\":8318:8319   */\n      0x00\n        /* \"#utility.yul\":8315:8316   */\n      dup1\n        /* \"#utility.yul\":8308:8320   */\n      revert\n        /* \"#utility.yul\":8332:8449   */\n    tag_63:\n        /* \"#utility.yul\":8441:8442   */\n      0x00\n        /* \"#utility.yul\":8438:8439   */\n      dup1\n        /* \"#utility.yul\":8431:8443   */\n      revert\n        /* \"#utility.yul\":8455:8572   */\n    tag_82:\n        /* \"#utility.yul\":8564:8565   */\n      0x00\n        /* \"#utility.yul\":8561:8562   */\n      dup1\n        /* \"#utility.yul\":8554:8566   */\n      revert\n        /* \"#utility.yul\":8578:8695   */\n    tag_79:\n        /* \"#utility.yul\":8687:8688   */\n      0x00\n        /* \"#utility.yul\":8684:8685   */\n      dup1\n        /* \"#utility.yul\":8677:8689   */\n      revert\n        /* \"#utility.yul\":8701:8803   */\n    tag_116:\n        /* \"#utility.yul\":8742:8748   */\n      0x00\n        /* \"#utility.yul\":8793:8795   */\n      0x1f\n        /* \"#utility.yul\":8789:8796   */\n      not\n        /* \"#utility.yul\":8784:8786   */\n      0x1f\n        /* \"#utility.yul\":8777:8782   */\n      dup4\n        /* \"#utility.yul\":8773:8787   */\n      add\n        /* \"#utility.yul\":8769:8797   */\n      and\n        /* \"#utility.yul\":8759:8797   */\n      swap1\n      pop\n        /* \"#utility.yul\":8701:8803   */\n      swap2\n      swap1\n      pop\n      jump\t// out\n        /* \"#utility.yul\":8809:8931   */\n    tag_75:\n        /* \"#utility.yul\":8882:8906   */\n      tag_176\n        /* \"#utility.yul\":8900:8905   */\n      dup2\n        /* \"#utility.yul\":8882:8906   */\n      tag_126\n      jump\t// in\n    tag_176:\n        /* \"#utility.yul\":8875:8880   */\n      dup2\n        /* \"#utility.yul\":8872:8907   */\n      eq\n        /* \"#utility.yul\":8862:8925   */\n      tag_177\n      jumpi\n        /* \"#utility.yul\":8921:8922   */\n      0x00\n        /* \"#utility.yul\":8918:8919   */\n      dup1\n        /* \"#utility.yul\":8911:8923   */\n      revert\n        /* \"#utility.yul\":8862:8925   */\n    tag_177:\n        /* \"#utility.yul\":8809:8931   */\n      pop\n      jump\t// out\n\n    auxdata: 0xa264697066735822122068fee5e93e1d91077f5fc4576ed9caf1d58a03b972eec149e1e0d4be50f70dda64736f6c63430008070033\n}\n",
				"bytecode": {
					"linkReferences": {},
					"object": "608060405260646002556040518060400160405280601081526020017f4865616c746820696e737572616e636500000000000000000000000000000000815250600390805190602001906100549291906100b3565b506040518060400160405280600c81526020017f57726f6e67206f7074696f6e0000000000000000000000000000000000000000815250600490805190602001906100a09291906100b3565b503480156100ad57600080fd5b506101b7565b8280546100bf90610156565b90600052602060002090601f0160209004810192826100e15760008555610128565b82601f106100fa57805160ff1916838001178555610128565b82800160010185558215610128579182015b8281111561012757825182559160200191906001019061010c565b5b5090506101359190610139565b5090565b5b8082111561015257600081600090555060010161013a565b5090565b6000600282049050600182168061016e57607f821691505b6020821081141561018257610181610188565b5b50919050565b7f4e487b7100000000000000000000000000000000000000000000000000000000600052602260045260246000fd5b610806806101c66000396000f3fe608060405234801561001057600080fd5b506004361061004c5760003560e01c80632ddbd13a14610051578063518bddd91461006f578063b6d25486146100a0578063bf5348d4146100bc575b600080fd5b6100596100d8565b60405161006691906105cf565b60405180910390f35b610089600480360381019061008491906103a5565b6100de565b60405161009792919061059f565b60405180910390f35b6100ba60048036038101906100b591906103ee565b6101b9565b005b6100d660048036038101906100d191906103a5565b61023e565b005b60055481565b6060600080836040516100f19190610588565b90815260200160405180910390206001016000846040516101129190610588565b908152602001604051809103902060020154818054610130906106d3565b80601f016020809104026020016040519081016040528092919081815260200182805461015c906106d3565b80156101a95780601f1061017e576101008083540402835291602001916101a9565b820191906000526020600020905b81548152906001019060200180831161018c57829003601f168201915b5050505050915091509150915091565b6040518060600160405280848152602001838152602001828152506000846040516101e49190610588565b9081526020016040518091039020600082015181600001908051906020019061020e92919061027d565b50602082015181600101908051906020019061022b92919061027d565b5060408201518160020155905050505050565b808051906020012060036040516102559190610571565b604051809103902014156102715760025460058190555061027a565b60006005819055505b50565b828054610289906106d3565b90600052602060002090601f0160209004810192826102ab57600085556102f2565b82601f106102c457805160ff19168380011785556102f2565b828001600101855582156102f2579182015b828111156102f15782518255916020019190600101906102d6565b5b5090506102ff9190610303565b5090565b5b8082111561031c576000816000905550600101610304565b5090565b600061033361032e8461060f565b6105ea565b90508281526020810184848401111561034f5761034e610799565b5b61035a848285610691565b509392505050565b600082601f83011261037757610376610794565b5b8135610387848260208601610320565b91505092915050565b60008135905061039f816107b9565b92915050565b6000602082840312156103bb576103ba6107a3565b5b600082013567ffffffffffffffff8111156103d9576103d861079e565b5b6103e584828501610362565b91505092915050565b600080600060608486031215610407576104066107a3565b5b600084013567ffffffffffffffff8111156104255761042461079e565b5b61043186828701610362565b935050602084013567ffffffffffffffff8111156104525761045161079e565b5b61045e86828701610362565b925050604061046f86828701610390565b9150509250925092565b60008154610486816106d3565b6104908186610660565b945060018216600081146104ab57600181146104bc576104ef565b60ff198316865281860193506104ef565b6104c585610640565b60005b838110156104e7578154818901526001820191506020810190506104c8565b838801955050505b50505092915050565b600061050382610655565b61050d818561066b565b935061051d8185602086016106a0565b610526816107a8565b840191505092915050565b600061053c82610655565b610546818561067c565b93506105568185602086016106a0565b80840191505092915050565b61056b81610687565b82525050565b600061057d8284610479565b915081905092915050565b60006105948284610531565b915081905092915050565b600060408201905081810360008301526105b981856104f8565b90506105c86020830184610562565b9392505050565b60006020820190506105e46000830184610562565b92915050565b60006105f4610605565b90506106008282610705565b919050565b6000604051905090565b600067ffffffffffffffff82111561062a57610629610765565b5b610633826107a8565b9050602081019050919050565b60008190508160005260206000209050919050565b600081519050919050565b600081905092915050565b600082825260208201905092915050565b600081905092915050565b6000819050919050565b82818337600083830152505050565b60005b838110156106be5780820151818401526020810190506106a3565b838111156106cd576000848401525b50505050565b600060028204905060018216806106eb57607f821691505b602082108114156106ff576106fe610736565b5b50919050565b61070e826107a8565b810181811067ffffffffffffffff8211171561072d5761072c610765565b5b80604052505050565b7f4e487b7100000000000000000000000000000000000000000000000000000000600052602260045260246000fd5b7f4e487b7100000000000000000000000000000000000000000000000000000000600052604160045260246000fd5b600080fd5b600080fd5b600080fd5b600080fd5b6000601f19601f8301169050919050565b6107c281610687565b81146107cd57600080fd5b5056fea264697066735822122068fee5e93e1d91077f5fc4576ed9caf1d58a03b972eec149e1e0d4be50f70dda64736f6c63430008070033",
					"opcodes": "PUSH1 0x80 PUSH1 0x40 MSTORE PUSH1 0x64 PUSH1 0x2 SSTORE PUSH1 0x40 MLOAD DUP1 PUSH1 0x40 ADD PUSH1 0x40 MSTORE DUP1 PUSH1 0x10 DUP2 MSTORE PUSH1 0x20 ADD PUSH32 0x4865616C746820696E737572616E636500000000000000000000000000000000 DUP2 MSTORE POP PUSH1 0x3 SWAP1 DUP1 MLOAD SWAP1 PUSH1 0x20 ADD SWAP1 PUSH2 0x54 SWAP3 SWAP2 SWAP1 PUSH2 0xB3 JUMP JUMPDEST POP PUSH1 0x40 MLOAD DUP1 PUSH1 0x40 ADD PUSH1 0x40 MSTORE DUP1 PUSH1 0xC DUP2 MSTORE PUSH1 0x20 ADD PUSH32 0x57726F6E67206F7074696F6E0000000000000000000000000000000000000000 DUP2 MSTORE POP PUSH1 0x4 SWAP1 DUP1 MLOAD SWAP1 PUSH1 0x20 ADD SWAP1 PUSH2 0xA0 SWAP3 SWAP2 SWAP1 PUSH2 0xB3 JUMP JUMPDEST POP CALLVALUE DUP1 ISZERO PUSH2 0xAD JUMPI PUSH1 0x0 DUP1 REVERT JUMPDEST POP PUSH2 0x1B7 JUMP JUMPDEST DUP3 DUP1 SLOAD PUSH2 0xBF SWAP1 PUSH2 0x156 JUMP JUMPDEST SWAP1 PUSH1 0x0 MSTORE PUSH1 0x20 PUSH1 0x0 KECCAK256 SWAP1 PUSH1 0x1F ADD PUSH1 0x20 SWAP1 DIV DUP2 ADD SWAP3 DUP3 PUSH2 0xE1 JUMPI PUSH1 0x0 DUP6 SSTORE PUSH2 0x128 JUMP JUMPDEST DUP3 PUSH1 0x1F LT PUSH2 0xFA JUMPI DUP1 MLOAD PUSH1 0xFF NOT AND DUP4 DUP1 ADD OR DUP6 SSTORE PUSH2 0x128 JUMP JUMPDEST DUP3 DUP1 ADD PUSH1 0x1 ADD DUP6 SSTORE DUP3 ISZERO PUSH2 0x128 JUMPI SWAP2 DUP3 ADD JUMPDEST DUP3 DUP2 GT ISZERO PUSH2 0x127 JUMPI DUP3 MLOAD DUP3 SSTORE SWAP2 PUSH1 0x20 ADD SWAP2 SWAP1 PUSH1 0x1 ADD SWAP1 PUSH2 0x10C JUMP JUMPDEST JUMPDEST POP SWAP1 POP PUSH2 0x135 SWAP2 SWAP1 PUSH2 0x139 JUMP JUMPDEST POP SWAP1 JUMP JUMPDEST JUMPDEST DUP1 DUP3 GT ISZERO PUSH2 0x152 JUMPI PUSH1 0x0 DUP2 PUSH1 0x0 SWAP1 SSTORE POP PUSH1 0x1 ADD PUSH2 0x13A JUMP JUMPDEST POP SWAP1 JUMP JUMPDEST PUSH1 0x0 PUSH1 0x2 DUP3 DIV SWAP1 POP PUSH1 0x1 DUP3 AND DUP1 PUSH2 0x16E JUMPI PUSH1 0x7F DUP3 AND SWAP2 POP JUMPDEST PUSH1 0x20 DUP3 LT DUP2 EQ ISZERO PUSH2 0x182 JUMPI PUSH2 0x181 PUSH2 0x188 JUMP JUMPDEST JUMPDEST POP SWAP2 SWAP1 POP JUMP JUMPDEST PUSH32 0x4E487B7100000000000000000000000000000000000000000000000000000000 PUSH1 0x0 MSTORE PUSH1 0x22 PUSH1 0x4 MSTORE PUSH1 0x24 PUSH1 0x0 REVERT JUMPDEST PUSH2 0x806 DUP1 PUSH2 0x1C6 PUSH1 0x0 CODECOPY PUSH1 0x0 RETURN INVALID PUSH1 0x80 PUSH1 0x40 MSTORE CALLVALUE DUP1 ISZERO PUSH2 0x10 JUMPI PUSH1 0x0 DUP1 REVERT JUMPDEST POP PUSH1 0x4 CALLDATASIZE LT PUSH2 0x4C JUMPI PUSH1 0x0 CALLDATALOAD PUSH1 0xE0 SHR DUP1 PUSH4 0x2DDBD13A EQ PUSH2 0x51 JUMPI DUP1 PUSH4 0x518BDDD9 EQ PUSH2 0x6F JUMPI DUP1 PUSH4 0xB6D25486 EQ PUSH2 0xA0 JUMPI DUP1 PUSH4 0xBF5348D4 EQ PUSH2 0xBC JUMPI JUMPDEST PUSH1 0x0 DUP1 REVERT JUMPDEST PUSH2 0x59 PUSH2 0xD8 JUMP JUMPDEST PUSH1 0x40 MLOAD PUSH2 0x66 SWAP2 SWAP1 PUSH2 0x5CF JUMP JUMPDEST PUSH1 0x40 MLOAD DUP1 SWAP2 SUB SWAP1 RETURN JUMPDEST PUSH2 0x89 PUSH1 0x4 DUP1 CALLDATASIZE SUB DUP2 ADD SWAP1 PUSH2 0x84 SWAP2 SWAP1 PUSH2 0x3A5 JUMP JUMPDEST PUSH2 0xDE JUMP JUMPDEST PUSH1 0x40 MLOAD PUSH2 0x97 SWAP3 SWAP2 SWAP1 PUSH2 0x59F JUMP JUMPDEST PUSH1 0x40 MLOAD DUP1 SWAP2 SUB SWAP1 RETURN JUMPDEST PUSH2 0xBA PUSH1 0x4 DUP1 CALLDATASIZE SUB DUP2 ADD SWAP1 PUSH2 0xB5 SWAP2 SWAP1 PUSH2 0x3EE JUMP JUMPDEST PUSH2 0x1B9 JUMP JUMPDEST STOP JUMPDEST PUSH2 0xD6 PUSH1 0x4 DUP1 CALLDATASIZE SUB DUP2 ADD SWAP1 PUSH2 0xD1 SWAP2 SWAP1 PUSH2 0x3A5 JUMP JUMPDEST PUSH2 0x23E JUMP JUMPDEST STOP JUMPDEST PUSH1 0x5 SLOAD DUP2 JUMP JUMPDEST PUSH1 0x60 PUSH1 0x0 DUP1 DUP4 PUSH1 0x40 MLOAD PUSH2 0xF1 SWAP2 SWAP1 PUSH2 0x588 JUMP JUMPDEST SWAP1 DUP2 MSTORE PUSH1 0x20 ADD PUSH1 0x40 MLOAD DUP1 SWAP2 SUB SWAP1 KECCAK256 PUSH1 0x1 ADD PUSH1 0x0 DUP5 PUSH1 0x40 MLOAD PUSH2 0x112 SWAP2 SWAP1 PUSH2 0x588 JUMP JUMPDEST SWAP1 DUP2 MSTORE PUSH1 0x20 ADD PUSH1 0x40 MLOAD DUP1 SWAP2 SUB SWAP1 KECCAK256 PUSH1 0x2 ADD SLOAD DUP2 DUP1 SLOAD PUSH2 0x130 SWAP1 PUSH2 0x6D3 JUMP JUMPDEST DUP1 PUSH1 0x1F ADD PUSH1 0x20 DUP1 SWAP2 DIV MUL PUSH1 0x20 ADD PUSH1 0x40 MLOAD SWAP1 DUP2 ADD PUSH1 0x40 MSTORE DUP1 SWAP3 SWAP2 SWAP1 DUP2 DUP2 MSTORE PUSH1 0x20 ADD DUP3 DUP1 SLOAD PUSH2 0x15C SWAP1 PUSH2 0x6D3 JUMP JUMPDEST DUP1 ISZERO PUSH2 0x1A9 JUMPI DUP1 PUSH1 0x1F LT PUSH2 0x17E JUMPI PUSH2 0x100 DUP1 DUP4 SLOAD DIV MUL DUP4 MSTORE SWAP2 PUSH1 0x20 ADD SWAP2 PUSH2 0x1A9 JUMP JUMPDEST DUP3 ADD SWAP2 SWAP1 PUSH1 0x0 MSTORE PUSH1 0x20 PUSH1 0x0 KECCAK256 SWAP1 JUMPDEST DUP2 SLOAD DUP2 MSTORE SWAP1 PUSH1 0x1 ADD SWAP1 PUSH1 0x20 ADD DUP1 DUP4 GT PUSH2 0x18C JUMPI DUP3 SWAP1 SUB PUSH1 0x1F AND DUP3 ADD SWAP2 JUMPDEST POP POP POP POP POP SWAP2 POP SWAP2 POP SWAP2 POP SWAP2 POP SWAP2 JUMP JUMPDEST PUSH1 0x40 MLOAD DUP1 PUSH1 0x60 ADD PUSH1 0x40 MSTORE DUP1 DUP5 DUP2 MSTORE PUSH1 0x20 ADD DUP4 DUP2 MSTORE PUSH1 0x20 ADD DUP3 DUP2 MSTORE POP PUSH1 0x0 DUP5 PUSH1 0x40 MLOAD PUSH2 0x1E4 SWAP2 SWAP1 PUSH2 0x588 JUMP JUMPDEST SWAP1 DUP2 MSTORE PUSH1 0x20 ADD PUSH1 0x40 MLOAD DUP1 SWAP2 SUB SWAP1 KECCAK256 PUSH1 0x0 DUP3 ADD MLOAD DUP2 PUSH1 0x0 ADD SWAP1 DUP1 MLOAD SWAP1 PUSH1 0x20 ADD SWAP1 PUSH2 0x20E SWAP3 SWAP2 SWAP1 PUSH2 0x27D JUMP JUMPDEST POP PUSH1 0x20 DUP3 ADD MLOAD DUP2 PUSH1 0x1 ADD SWAP1 DUP1 MLOAD SWAP1 PUSH1 0x20 ADD SWAP1 PUSH2 0x22B SWAP3 SWAP2 SWAP1 PUSH2 0x27D JUMP JUMPDEST POP PUSH1 0x40 DUP3 ADD MLOAD DUP2 PUSH1 0x2 ADD SSTORE SWAP1 POP POP POP POP POP JUMP JUMPDEST DUP1 DUP1 MLOAD SWAP1 PUSH1 0x20 ADD KECCAK256 PUSH1 0x3 PUSH1 0x40 MLOAD PUSH2 0x255 SWAP2 SWAP1 PUSH2 0x571 JUMP JUMPDEST PUSH1 0x40 MLOAD DUP1 SWAP2 SUB SWAP1 KECCAK256 EQ ISZERO PUSH2 0x271 JUMPI PUSH1 0x2 SLOAD PUSH1 0x5 DUP2 SWAP1 SSTORE POP PUSH2 0x27A JUMP JUMPDEST PUSH1 0x0 PUSH1 0x5 DUP2 SWAP1 SSTORE POP JUMPDEST POP JUMP JUMPDEST DUP3 DUP1 SLOAD PUSH2 0x289 SWAP1 PUSH2 0x6D3 JUMP JUMPDEST SWAP1 PUSH1 0x0 MSTORE PUSH1 0x20 PUSH1 0x0 KECCAK256 SWAP1 PUSH1 0x1F ADD PUSH1 0x20 SWAP1 DIV DUP2 ADD SWAP3 DUP3 PUSH2 0x2AB JUMPI PUSH1 0x0 DUP6 SSTORE PUSH2 0x2F2 JUMP JUMPDEST DUP3 PUSH1 0x1F LT PUSH2 0x2C4 JUMPI DUP1 MLOAD PUSH1 0xFF NOT AND DUP4 DUP1 ADD OR DUP6 SSTORE PUSH2 0x2F2 JUMP JUMPDEST DUP3 DUP1 ADD PUSH1 0x1 ADD DUP6 SSTORE DUP3 ISZERO PUSH2 0x2F2 JUMPI SWAP2 DUP3 ADD JUMPDEST DUP3 DUP2 GT ISZERO PUSH2 0x2F1 JUMPI DUP3 MLOAD DUP3 SSTORE SWAP2 PUSH1 0x20 ADD SWAP2 SWAP1 PUSH1 0x1 ADD SWAP1 PUSH2 0x2D6 JUMP JUMPDEST JUMPDEST POP SWAP1 POP PUSH2 0x2FF SWAP2 SWAP1 PUSH2 0x303 JUMP JUMPDEST POP SWAP1 JUMP JUMPDEST JUMPDEST DUP1 DUP3 GT ISZERO PUSH2 0x31C JUMPI PUSH1 0x0 DUP2 PUSH1 0x0 SWAP1 SSTORE POP PUSH1 0x1 ADD PUSH2 0x304 JUMP JUMPDEST POP SWAP1 JUMP JUMPDEST PUSH1 0x0 PUSH2 0x333 PUSH2 0x32E DUP5 PUSH2 0x60F JUMP JUMPDEST PUSH2 0x5EA JUMP JUMPDEST SWAP1 POP DUP3 DUP2 MSTORE PUSH1 0x20 DUP2 ADD DUP5 DUP5 DUP5 ADD GT ISZERO PUSH2 0x34F JUMPI PUSH2 0x34E PUSH2 0x799 JUMP JUMPDEST JUMPDEST PUSH2 0x35A DUP5 DUP3 DUP6 PUSH2 0x691 JUMP JUMPDEST POP SWAP4 SWAP3 POP POP POP JUMP JUMPDEST PUSH1 0x0 DUP3 PUSH1 0x1F DUP4 ADD SLT PUSH2 0x377 JUMPI PUSH2 0x376 PUSH2 0x794 JUMP JUMPDEST JUMPDEST DUP2 CALLDATALOAD PUSH2 0x387 DUP5 DUP3 PUSH1 0x20 DUP7 ADD PUSH2 0x320 JUMP JUMPDEST SWAP2 POP POP SWAP3 SWAP2 POP POP JUMP JUMPDEST PUSH1 0x0 DUP2 CALLDATALOAD SWAP1 POP PUSH2 0x39F DUP2 PUSH2 0x7B9 JUMP JUMPDEST SWAP3 SWAP2 POP POP JUMP JUMPDEST PUSH1 0x0 PUSH1 0x20 DUP3 DUP5 SUB SLT ISZERO PUSH2 0x3BB JUMPI PUSH2 0x3BA PUSH2 0x7A3 JUMP JUMPDEST JUMPDEST PUSH1 0x0 DUP3 ADD CALLDATALOAD PUSH8 0xFFFFFFFFFFFFFFFF DUP2 GT ISZERO PUSH2 0x3D9 JUMPI PUSH2 0x3D8 PUSH2 0x79E JUMP JUMPDEST JUMPDEST PUSH2 0x3E5 DUP5 DUP3 DUP6 ADD PUSH2 0x362 JUMP JUMPDEST SWAP2 POP POP SWAP3 SWAP2 POP POP JUMP JUMPDEST PUSH1 0x0 DUP1 PUSH1 0x0 PUSH1 0x60 DUP5 DUP7 SUB SLT ISZERO PUSH2 0x407 JUMPI PUSH2 0x406 PUSH2 0x7A3 JUMP JUMPDEST JUMPDEST PUSH1 0x0 DUP5 ADD CALLDATALOAD PUSH8 0xFFFFFFFFFFFFFFFF DUP2 GT ISZERO PUSH2 0x425 JUMPI PUSH2 0x424 PUSH2 0x79E JUMP JUMPDEST JUMPDEST PUSH2 0x431 DUP7 DUP3 DUP8 ADD PUSH2 0x362 JUMP JUMPDEST SWAP4 POP POP PUSH1 0x20 DUP5 ADD CALLDATALOAD PUSH8 0xFFFFFFFFFFFFFFFF DUP2 GT ISZERO PUSH2 0x452 JUMPI PUSH2 0x451 PUSH2 0x79E JUMP JUMPDEST JUMPDEST PUSH2 0x45E DUP7 DUP3 DUP8 ADD PUSH2 0x362 JUMP JUMPDEST SWAP3 POP POP PUSH1 0x40 PUSH2 0x46F DUP7 DUP3 DUP8 ADD PUSH2 0x390 JUMP JUMPDEST SWAP2 POP POP SWAP3 POP SWAP3 POP SWAP3 JUMP JUMPDEST PUSH1 0x0 DUP2 SLOAD PUSH2 0x486 DUP2 PUSH2 0x6D3 JUMP JUMPDEST PUSH2 0x490 DUP2 DUP7 PUSH2 0x660 JUMP JUMPDEST SWAP5 POP PUSH1 0x1 DUP3 AND PUSH1 0x0 DUP2 EQ PUSH2 0x4AB JUMPI PUSH1 0x1 DUP2 EQ PUSH2 0x4BC JUMPI PUSH2 0x4EF JUMP JUMPDEST PUSH1 0xFF NOT DUP4 AND DUP7 MSTORE DUP2 DUP7 ADD SWAP4 POP PUSH2 0x4EF JUMP JUMPDEST PUSH2 0x4C5 DUP6 PUSH2 0x640 JUMP JUMPDEST PUSH1 0x0 JUMPDEST DUP4 DUP2 LT ISZERO PUSH2 0x4E7 JUMPI DUP2 SLOAD DUP2 DUP10 ADD MSTORE PUSH1 0x1 DUP3 ADD SWAP2 POP PUSH1 0x20 DUP2 ADD SWAP1 POP PUSH2 0x4C8 JUMP JUMPDEST DUP4 DUP9 ADD SWAP6 POP POP POP JUMPDEST POP POP POP SWAP3 SWAP2 POP POP JUMP JUMPDEST PUSH1 0x0 PUSH2 0x503 DUP3 PUSH2 0x655 JUMP JUMPDEST PUSH2 0x50D DUP2 DUP6 PUSH2 0x66B JUMP JUMPDEST SWAP4 POP PUSH2 0x51D DUP2 DUP6 PUSH1 0x20 DUP7 ADD PUSH2 0x6A0 JUMP JUMPDEST PUSH2 0x526 DUP2 PUSH2 0x7A8 JUMP JUMPDEST DUP5 ADD SWAP2 POP POP SWAP3 SWAP2 POP POP JUMP JUMPDEST PUSH1 0x0 PUSH2 0x53C DUP3 PUSH2 0x655 JUMP JUMPDEST PUSH2 0x546 DUP2 DUP6 PUSH2 0x67C JUMP JUMPDEST SWAP4 POP PUSH2 0x556 DUP2 DUP6 PUSH1 0x20 DUP7 ADD PUSH2 0x6A0 JUMP JUMPDEST DUP1 DUP5 ADD SWAP2 POP POP SWAP3 SWAP2 POP POP JUMP JUMPDEST PUSH2 0x56B DUP2 PUSH2 0x687 JUMP JUMPDEST DUP3 MSTORE POP POP JUMP JUMPDEST PUSH1 0x0 PUSH2 0x57D DUP3 DUP5 PUSH2 0x479 JUMP JUMPDEST SWAP2 POP DUP2 SWAP1 POP SWAP3 SWAP2 POP POP JUMP JUMPDEST PUSH1 0x0 PUSH2 0x594 DUP3 DUP5 PUSH2 0x531 JUMP JUMPDEST SWAP2 POP DUP2 SWAP1 POP SWAP3 SWAP2 POP POP JUMP JUMPDEST PUSH1 0x0 PUSH1 0x40 DUP3 ADD SWAP1 POP DUP2 DUP2 SUB PUSH1 0x0 DUP4 ADD MSTORE PUSH2 0x5B9 DUP2 DUP6 PUSH2 0x4F8 JUMP JUMPDEST SWAP1 POP PUSH2 0x5C8 PUSH1 0x20 DUP4 ADD DUP5 PUSH2 0x562 JUMP JUMPDEST SWAP4 SWAP3 POP POP POP JUMP JUMPDEST PUSH1 0x0 PUSH1 0x20 DUP3 ADD SWAP1 POP PUSH2 0x5E4 PUSH1 0x0 DUP4 ADD DUP5 PUSH2 0x562 JUMP JUMPDEST SWAP3 SWAP2 POP POP JUMP JUMPDEST PUSH1 0x0 PUSH2 0x5F4 PUSH2 0x605 JUMP JUMPDEST SWAP1 POP PUSH2 0x600 DUP3 DUP3 PUSH2 0x705 JUMP JUMPDEST SWAP2 SWAP1 POP JUMP JUMPDEST PUSH1 0x0 PUSH1 0x40 MLOAD SWAP1 POP SWAP1 JUMP JUMPDEST PUSH1 0x0 PUSH8 0xFFFFFFFFFFFFFFFF DUP3 GT ISZERO PUSH2 0x62A JUMPI PUSH2 0x629 PUSH2 0x765 JUMP JUMPDEST JUMPDEST PUSH2 0x633 DUP3 PUSH2 0x7A8 JUMP JUMPDEST SWAP1 POP PUSH1 0x20 DUP2 ADD SWAP1 POP SWAP2 SWAP1 POP JUMP JUMPDEST PUSH1 0x0 DUP2 SWAP1 POP DUP2 PUSH1 0x0 MSTORE PUSH1 0x20 PUSH1 0x0 KECCAK256 SWAP1 POP SWAP2 SWAP1 POP JUMP JUMPDEST PUSH1 0x0 DUP2 MLOAD SWAP1 POP SWAP2 SWAP1 POP JUMP JUMPDEST PUSH1 0x0 DUP2 SWAP1 POP SWAP3 SWAP2 POP POP JUMP JUMPDEST PUSH1 0x0 DUP3 DUP3 MSTORE PUSH1 0x20 DUP3 ADD SWAP1 POP SWAP3 SWAP2 POP POP JUMP JUMPDEST PUSH1 0x0 DUP2 SWAP1 POP SWAP3 SWAP2 POP POP JUMP JUMPDEST PUSH1 0x0 DUP2 SWAP1 POP SWAP2 SWAP1 POP JUMP JUMPDEST DUP3 DUP2 DUP4 CALLDATACOPY PUSH1 0x0 DUP4 DUP4 ADD MSTORE POP POP POP JUMP JUMPDEST PUSH1 0x0 JUMPDEST DUP4 DUP2 LT ISZERO PUSH2 0x6BE JUMPI DUP1 DUP3 ADD MLOAD DUP2 DUP5 ADD MSTORE PUSH1 0x20 DUP2 ADD SWAP1 POP PUSH2 0x6A3 JUMP JUMPDEST DUP4 DUP2 GT ISZERO PUSH2 0x6CD JUMPI PUSH1 0x0 DUP5 DUP5 ADD MSTORE JUMPDEST POP POP POP POP JUMP JUMPDEST PUSH1 0x0 PUSH1 0x2 DUP3 DIV SWAP1 POP PUSH1 0x1 DUP3 AND DUP1 PUSH2 0x6EB JUMPI PUSH1 0x7F DUP3 AND SWAP2 POP JUMPDEST PUSH1 0x20 DUP3 LT DUP2 EQ ISZERO PUSH2 0x6FF JUMPI PUSH2 0x6FE PUSH2 0x736 JUMP JUMPDEST JUMPDEST POP SWAP2 SWAP1 POP JUMP JUMPDEST PUSH2 0x70E DUP3 PUSH2 0x7A8 JUMP JUMPDEST DUP2 ADD DUP2 DUP2 LT PUSH8 0xFFFFFFFFFFFFFFFF DUP3 GT OR ISZERO PUSH2 0x72D JUMPI PUSH2 0x72C PUSH2 0x765 JUMP JUMPDEST JUMPDEST DUP1 PUSH1 0x40 MSTORE POP POP POP JUMP JUMPDEST PUSH32 0x4E487B7100000000000000000000000000000000000000000000000000000000 PUSH1 0x0 MSTORE PUSH1 0x22 PUSH1 0x4 MSTORE PUSH1 0x24 PUSH1 0x0 REVERT JUMPDEST PUSH32 0x4E487B7100000000000000000000000000000000000000000000000000000000 PUSH1 0x0 MSTORE PUSH1 0x41 PUSH1 0x4 MSTORE PUSH1 0x24 PUSH1 0x0 REVERT JUMPDEST PUSH1 0x0 DUP1 REVERT JUMPDEST PUSH1 0x0 DUP1 REVERT JUMPDEST PUSH1 0x0 DUP1 REVERT JUMPDEST PUSH1 0x0 DUP1 REVERT JUMPDEST PUSH1 0x0 PUSH1 0x1F NOT PUSH1 0x1F DUP4 ADD AND SWAP1 POP SWAP2 SWAP1 POP JUMP JUMPDEST PUSH2 0x7C2 DUP2 PUSH2 0x687 JUMP JUMPDEST DUP2 EQ PUSH2 0x7CD JUMPI PUSH1 0x0 DUP1 REVERT JUMPDEST POP JUMP INVALID LOG2 PUSH5 0x6970667358 0x22 SLT KECCAK256 PUSH9 0xFEE5E93E1D91077F5F 0xC4 JUMPI PUSH15 0xD9CAF1D58A03B972EEC149E1E0D4BE POP 0xF7 0xD 0xDA PUSH5 0x736F6C6343 STOP ADDMOD SMOD STOP CALLER "
				},
				"gasEstimates": {
					"creation": {
						"codeDepositCost": "410800",
						"executionCost": "infinite",
						"totalCost": "infinite"
					},
					"external": {
						"getCustomer(string)": "infinite",
						"saveCustomerDetails(string,string,uint256)": "infinite",
						"setInsurance(string)": "infinite",
						"total()": "2407"
					}
				},
				"methodIdentifiers": {
					"getCustomer(string)": "518bddd9",
					"saveCustomerDetails(string,string,uint256)": "b6d25486",
					"setInsurance(string)": "bf5348d4",
					"total()": "2ddbd13a"
				}
			},
			"storageLayout": {
				"storage": [
					{
						"astId": 6,
						"contract": "contracts/insurance.sol:Insurance",
						"label": "Mapping",
						"offset": 0,
						"slot": "0",
						"type": "t_mapping(t_string_memory_ptr,t_struct(customer)13_storage)"
					},
					{
						"astId": 55,
						"contract": "contracts/insurance.sol:Insurance",
						"label": "healthInsurance",
						"offset": 0,
						"slot": "1",
						"type": "t_uint256"
					},
					{
						"astId": 58,
						"contract": "contracts/insurance.sol:Insurance",
						"label": "insurance_price",
						"offset": 0,
						"slot": "2",
						"type": "t_uint256"
					},
					{
						"astId": 61,
						"contract": "contracts/insurance.sol:Insurance",
						"label": "type_of_insurance",
						"offset": 0,
						"slot": "3",
						"type": "t_string_storage"
					},
					{
						"astId": 64,
						"contract": "contracts/insurance.sol:Insurance",
						"label": "warning",
						"offset": 0,
						"slot": "4",
						"type": "t_string_storage"
					},
					{
						"astId": 66,
						"contract": "contracts/insurance.sol:Insurance",
						"label": "total",
						"offset": 0,
						"slot": "5",
						"type": "t_uint256"
					}
				],
				"types": {
					"t_mapping(t_string_memory_ptr,t_struct(customer)13_storage)": {
						"encoding": "mapping",
						"key": "t_string_memory_ptr",
						"label": "mapping(string => struct Insurance.customer)",
						"numberOfBytes": "32",
						"value": "t_struct(customer)13_storage"
					},
					"t_string_memory_ptr": {
						"encoding": "bytes",
						"label": "string",
						"numberOfBytes": "32"
					},
					"t_string_storage": {
						"encoding": "bytes",
						"label": "string",
						"numberOfBytes": "32"
					},
					"t_struct(customer)13_storage": {
						"encoding": "inplace",
						"label": "struct Insurance.customer",
						"members": [
							{
								"astId": 8,
								"contract": "contracts/insurance.sol:Insurance",
								"label": "id",
								"offset": 0,
								"slot": "0",
								"type": "t_string_storage"
							},
							{
								"astId": 10,
								"contract": "contracts/insurance.sol:Insurance",
								"label": "name",
								"offset": 0,
								"slot": "1",
								"type": "t_string_storage"
							},
							{
								"astId": 12,
								"contract": "contracts/insurance.sol:Insurance",
								"label": "age",
								"offset": 0,
								"slot": "2",
								"type": "t_uint256"
							}
						],
						"numberOfBytes": "96"
					},
					"t_uint256": {
						"encoding": "inplace",
						"label": "uint256",
						"numberOfBytes": "32"
					}
				}
			},
			"userdoc": {
				"kind": "user",
				"methods": {},
				"version": 1
			}
		}
	}
}